:1080000082008952820089B5820089B5820089B5D3
:10801000820089B5820089B5820089B5820089B560
:10802000820089B5820089B5820089B5820089B550
:10803000820089B5820089B5820089B5820089B540
:10804000820089B5820089B5820089B5820089B530
:10805000820089B5820089B5820089B5820089B520
:10806000820089B5820089B5820089B5820089B510
:10807000820089B5820089B5820089B5820089B500
:10808000CD88642000B604A480B800B700CD816D0F
:108090002071206D206E2071207472F90172A2008F
:1080A0007E17015F894B0090AE00034B0090E60401
:1080B000272C3D032710BE024272FB031F03240638
:1080C0000C0226020C013D02270CBE014272FB028B
:1080D0001F0224020C01BE004272FB011F01905AD4
:1080E00026C95B02320003849085905D2702AA01B5
:1080F00090855D2B0648390359905ABF0193CC8176
:10810000F527038125FDCC82535B02CC82475F3883
:108110000056BF005FBF025B02813F003F039E4DE0
:10812000261202270CA6874A5824FC38004656B768
:1081300000BF0181A68E20F0BE01B6005849A07F85
:108140002529A1102509AE7FFF3D002A015C8199F8
:108150005640AB0FA1082509884F0184A0082001D3
:1081600054A00124FB3D002A0150815F819085B617
:108170000148B600492730A1FF271C721E00018864
:108180004B00B60548B60449273EA1FF2733721EAF
:1081900000055F9751EC0AAD4A2647AD4E224025B7
:1081A0000290FC5D90EC02AD3A270E5F5C5A3803FA
:1081B000390239012AF78920C9AD3022225D90ECBD
:1081C00004AD28221890EC06AD215D270D5F5C5AA6
:1081D0003807390639052AF720BA90EC085B02CC3B
:1081E000854081B60148BA02BA0381BE0650BE047A
:1081F00059A3FF00815D9C2C24A3FFE72C0D4FB7F2
:1082000003B702B701380046B700813401360236A1
:1082100003462402AA015CA3000126EF5F7201005D
:108220000302AA01A300FE2C1E380138004146B704
:1082300000360141A181250E3C03260A3C02260698
:108240003C0126023C0081AEFF00380056BF005FB3
:10825000BF02815F5ABF00BF0281CD84E5CD84EAB1
:108260003B00063B00075206CD8581B7000F020F89
:10827000015FBF0EBF0C5F1F035F1F0572195244E1
:10828000C65244BA00C75244C65246A4CFC752464B
:10829000C65246BA04C75246C65244A4F9C752440D
:1082A000C65244BA05C75244C652426B01725F526D
:1082B00042C65243A40FC75243C65243A4F0C7520A
:1082C00043CD854DA604CD84A8CD84E0CD8681CD57
:1082D000850CCD843BCD858ECD854DA604CD84A85F
:1082E000CD8581CD8681CD83A900000064CD8574C4
:1082F000CD843BCD879303CD855ACD83A900000063
:1083000064CD8567CD876B03CD838EA604CD84A80D
:10831000CD843800000064B603A40F6B02BE0ECDFE
:1083200089989FA4F06B017B011A02C75243B60FD4
:10833000C75242C65245A4F3C75245C65246A4F896
:10834000C752467B08A407CA5246C752467B07A4B9
:1083500004A1002706721652452004721752457B6D
:1083600007A408A100270672145245200472155272
:10837000457B08A480A100270672175246200A7B7D
:1083800008A408CA5246C752465B08CC8535AE00E1
:1083900004B603E003B703B602E202B702B601E295
:1083A00001B701B600F2B70081CD887189FEBF0424
:1083B00085EE02BF06B600BE06429FB700B601BEFC
:1083C00005429FBB00B700B602BE04429FBB00B788
:1083D00000B603BE03429FBB00B700B601BE064213
:1083E0003F0172BB0000BF00B602BE054272BB0077
:1083F00000BF00B603BE044272BB0000BF00B6025D
:10840000BE06423F0272BB0001BF0124023C00B61F
:1084100003BE054272BB0001BF0124023C00B6034B
:10842000BE06423F0372BB0002BF022405BE005CD1
:10843000BF0081CD88572003CD8864BE00261E90E2
:10844000BE04260CBE0290BE0665BF0290BF068128
:10845000BF04450206450307BF00BF0281A6203DB9
:1084600000260DBE01BF004503023F033A03A008EA
:108470005F905F992017905959B304260390B30673
:10848000250B72B2000624015A72B0000439033978
:1084900002390139004A2ADEBF0490BF06BE0053EC
:1084A000BF00BE0253BF0281AE00004D270A680321
:1084B00069026901794A26F68188A6082000887B2E
:1084C00002887B02891E061F045F97FE1F068584B3
:1084D00081891E05BF0820001E031F05855B0281E0
:1084E00088A600200A88A608200588A60C200088F7
:1084F000897B04887B04891E081F045F971F08FE80
:108500001F061E085C5CFE1F08858481891E05BF4E
:10851000041E07BF062016891E05BF081E07BF0AD6
:10852000200B891E05BF0C1E07BF0E20001E031F57
:1085300007855B0481CD8522CD851781CD84D181CE
:10854000450400450501450602450703814508002D
:10855000450901450A02450B0381450C00450D0103
:10856000450E02450F0381450004450105450206FD
:1085700045030781450804450905450A06450B07DB
:108580008145000845010945020A45030B81450064
:108590000C45010D45020E45030F819093B70193E1
:1085A0001C0004B60143F4931C0004F7B600A48039
:1085B000A1002723B600A410A100270890F6BA0155
:1085C00090F72007B6014390F490F7935C5CF6BAFD
:1085D00001935C5CF7200B935C5CB60143F4935C05
:1085E0005CF7B600A440A100270E931C0003F6BA66
:1085F00001931C0003F7200D931C0003B60143F404
:10860000931C0003F7B600A420A100270D931C00C3
:1086100004F6BA01931C0004F781931C0004330193
:10862000B601F4931C0004F781B701B601A410A1B0
:108630000026273D002711B601A40F5F5CCD89906D
:108640009FCA50C7C750C781B601A40F5F5CCD89D0
:10865000909F43C450C7C750C7813D002711B60142
:10866000A40F5F5CCD89909FCA50CAC750CA81B61B
:1086700001A40F5F5CCD89909F43C450CAC750CA04
:10868000815FBF02BF00A6E13F053F045550C30014
:1086900006B606A1E12628C650C6A418B705B60539
:1086A000444444B7055FB60597D689A9B7045FB6B9
:1086B0000497BF065FBF04CD843300F4240081A17A
:1086C000D2260AAEF400BF025F5CBF0081AE240078
:1086D000BF02AE00F4BF00815214CD88D9CD87F817
:1086E000CD889FAE0020CD887CAE8965CD87B22035
:1086F0001DA620AE5014CD899DA620AE5014CD8964
:10870000ADAE0BB8CD88BF961C0001CD87B2AE00D0
:1087100020CD8722A10127D9A620AE5014CD899D56
:1087200020EC4FA30210260D9FC45247A10027033F
:10873000A601814F81A30101260D9FC45245A100CE
:108740002703A601814F81A303022705A303012666
:108750000D9FC45249A1002703A601814F819FC4E8
:108760005240A1002703A601814F81855C895AF6FA
:108770005F975C5CBF009672BB000089FEBF001E65
:1087800001EE02BF02858189FEBF041E01EE02BF19
:10879000068581855C895AF65F9789961C0004726C
:1087A000FB015B02908990BE00FF90BE02EF029039
:1087B0008581CD84B93B000BBF08AE0040CD887CDD
:1087C0003F0B20185FB60B9772BB0008F6CD89B13E
:1087D000AE0080CD8722A10027F63C0BBE08CD89D4
:1087E00083905FB60B9097BF0090B30025D65FB61D
:1087F0000B9732000BCC853C35F00000A620AE5024
:108800000FCD859B35400000A640AE500FCD859B17
:10881000AE5014CD890335E00000A620AE5014CD33
:10882000859B35400000A640AE5014CC859B555228
:10883000400000C65241725F5243725F5242725F03
:108840005244725F5245725F5246725F5247725F86
:108850005248725F5249811603931C00045117035A
:10886000CD877B811603931C0004511703CD8787A6
:10887000811E031C00041F031D000481A300202689
:108880000535DF524081A302102605721952478137
:10889000A30302260572135249817211524981CDF8
:1088A000882E350C0007358000063F053F044FAE8B
:1088B0002580BF025FBF00CD825AA601CC8976CD4C
:1088C00084B9BF08200BAE03E8CD88EEBE085ABFBE
:1088D00008BE085D26F0CC853C4FCD893F350100B0
:1088E00000A603CD8629350100004FCC8629CD8115
:1088F0001ACD80803F800000CD813820029D5A5DD6
:1089000026FB819093907F935C5C7F931C00037F98
:1089100072A90004907F81AE000020065C5C90FE8E
:1089200090FD909390A3000026F281CD84B952026D
:10893000BF08BE081F01965CA601CD89C120F3B710
:1089400000C650C6A4E7C750C6C650C6BA00C75036
:10895000C681AE07FF94CD89B85D2703CD8917CDB9
:1089600086D8CC89BB416C6C6168206973206772C2
:108970006561740D0A004D2705721B524481721AFD
:10898000524481BF0020015C7D26FC72B000008152
:108990004D2704584A26FC815454545481B700F69C
:1089A000BA00F7818985CD892B0102040843F4F7C9
:1089B00081C7524181CC89BE5F5C81CC89A49D2056
:0289C000FD8137
:04000005000089521C
:00000001FF
